:020000040000fa
:080000000002040000000000f2
:020000040000fa
:04000800c80200002a
:020000040000fa
:04000c00c802000026
:020000040000fa
:04001000c802000022
:020000040000fa
:04001400c80200001e
:020000040000fa
:04001800c80200001a
:020000040000fa
:04001c00c802000016
:020000040000fa
:04002000c802000012
:020000040000fa
:04002400c80200000e
:020000040000fa
:04002800c80200000a
:020000040000fa
:04002c00c802000006
:020000040000fa
:04003000c802000002
:020000040000fa
:04003400c8020000fe
:020000040000fa
:04003800c8020000fa
:020000040000fa
:04003c00c8020000f6
:020000040000fa
:04004000c8020000f2
:020000040000fa
:04004400c8020000ee
:020000040000fa
:04004800c8020000ea
:020000040000fa
:04004c00c8020000e6
:020000040000fa
:04005000c8020000e2
:020000040000fa
:04005400c8020000de
:020000040000fa
:04005800c8020000da
:020000040000fa
:04005c00c8020000d6
:020000040000fa
:04006000c8020000d2
:020000040000fa
:04006400c8020000ce
:020000040000fa
:04006800c8020000ca
:020000040000fa
:04006c00c8020000c6
:020000040000fa
:04007000c8020000c2
:020000040000fa
:04007400c8020000be
:020000040000fa
:04007800c8020000ba
:020000040000fa
:04007c00c8020000b6
:020000040000fa
:04008000c8020000b2
:020000040000fa
:04008400c8020000ae
:020000040000fa
:04008800c8020000aa
:020000040000fa
:04008c00c8020000a6
:020000040000fa
:04009000c8020000a2
:020000040000fa
:04009400c80200009e
:020000040000fa
:04009800c80200009a
:020000040000fa
:04009c00c802000096
:020000040000fa
:0400a000c802000092
:020000040000fa
:0400a400c80200008e
:020000040000fa
:0400a800c80200008a
:020000040000fa
:0400ac00c802000086
:020000040000fa
:0400b000c802000082
:020000040000fa
:0400b400c80200007e
:020000040000fa
:0400b800c80200007a
:020000040000fa
:0400bc00c802000076
:020000040000fa
:0400c000c802000072
:020000040000fa
:0400c400c80200006e
:020000040000fa
:0400c800c80200006a
:020000040000fa
:0400cc00c802000066
:020000040000fa
:0400d000c802000062
:020000040000fa
:0400d400c80200005e
:020000040000fa
:0400d800c80200005a
:020000040000fa
:0400dc00c802000056
:020000040000fa
:0400e000c802000052
:020000040000fa
:0400e400c80200004e
:020000040000fa
:0400e800c80200004a
:020000040000fa
:0400ec00c802000046
:020000040000fa
:0400f000c802000042
:020000040000fa
:0400f400c80200003e
:020000040000fa
:0400f800c80200003a
:020000040000fa
:0400fc00c802000036
:020000040000fa
:04010000c802000031
:020000040000fa
:04010400c80200002d
:020000040000fa
:04010800c802000029
:020000040000fa
:04010c00c802000025
:020000040000fa
:04011000c802000021
:020000040000fa
:04011400c80200001d
:020000040000fa
:04011800c802000019
:020000040000fa
:04011c00c802000015
:020000040000fa
:04012000c802000011
:020000040000fa
:04012400c80200000d
:020000040000fa
:04012800c802000009
:020000040000fa
:04012c00c802000005
:020000040000fa
:04013000c802000001
:020000040000fa
:04013400c8020000fd
:020000040000fa
:04013800c8020000f9
:020000040000fa
:04013c00c8020000f5
:020000040000fa
:04014000c8020000f1
:020000040000fa
:04014400c8020000ed
:020000040000fa
:04014800c8020000e9
:020000040000fa
:04020800c802000028
:020000040000fa
:04020c00c802000024
:020000040000fa
:04021000c802000020
:020000040000fa
:04021400c80200001c
:020000040000fa
:04021800c802000018
:020000040000fa
:04021c00c802000014
:020000040000fa
:04022000c802000010
:020000040000fa
:04022400c80200000c
:020000040000fa
:04022800c802000008
:020000040000fa
:04022c00c802000004
:020000040000fa
:04023000c802000000
:020000040000fa
:04023400c8020000fc
:020000040000fa
:04023800c8020000f8
:020000040000fa
:04023c00c8020000f4
:020000040000fa
:04024000c8020000f0
:020000040000fa
:04024400c8020000ec
:020000040000fa
:04024800c8020000e8
:020000040000fa
:04024c00c8020000e4
:020000040000fa
:04025000c8020000e0
:020000040000fa
:04025400c8020000dc
:020000040000fa
:04025800c8020000d8
:020000040000fa
:04025c00c8020000d4
:020000040000fa
:04026000c8020000d0
:020000040000fa
:04026400c8020000cc
:020000040000fa
:04026800c8020000c8
:020000040000fa
:04026c00c8020000c4
:020000040000fa
:04027000c8020000c0
:020000040000fa
:04027400c8020000bc
:020000040000fa
:04027800c8020000b8
:020000040000fa
:04027c00c8020000b4
:020000040000fa
:04028000c8020000b0
:020000040000fa
:04028400c8020000ac
:020000040000fa
:04028800c8020000a8
:020000040000fa
:04028c00c8020000a4
:020000040000fa
:04029000c8020000a0
:020000040000fa
:04029400c80200009c
:020000040000fa
:04029800c802000098
:020000040000fa
:04029c00c802000094
:020000040000fa
:0402a000c802000090
:020000040000fa
:0402a400c80200008c
:020000040000fa
:0402a800c802000088
:020000040000fa
:0402ac00c802000084
:020000040000fa
:0402b000c802000080
:020000040000fa
:0402b400c80200007c
:020000040000fa
:0402b800c802000078
:020000040000fa
:0402bc00c802000074
:020000040000fa
:0402c000c802000070
:020000040000fa
:0402c400c80200006c
:020000040000fa
:0402c800c802000068
:020000040000fa
:0402cc00c802000064
:020000040000fa
:0402d000c802000060
:020000040000fa
:0402d400c80200005c
:020000040000fa
:0402d800c802000058
:020000040000fa
:0402dc00c802000054
:020000040000fa
:0402e000c802000050
:020000040000fa
:0402e400c80200004c
:020000040000fa
:0402e800c802000048
:020000040000fa
:0402ec00c802000044
:020000040000fa
:0402f000c802000040
:020000040000fa
:0402f400c80200003c
:020000040000fa
:0402f800c802000038
:020000040000fa
:0402fc00c802000034
:020000040000fa
:04030000c80200002f
:020000040000fa
:04030400c80200002b
:020000040000fa
:04030800c802000027
:020000040000fa
:04030c00c802000023
:020000040000fa
:04031000c80200001f
:020000040000fa
:04031400c80200001b
:020000040000fa
:04031800c802000017
:020000040000fa
:04031c00c802000013
:020000040000fa
:04032000c80200000f
:020000040000fa
:04032400c80200000b
:020000040000fa
:04032800c802000007
:020000040000fa
:04032c00c802000003
:020000040000fa
:04033000c8020000ff
:020000040000fa
:04033400c8020000fb
:020000040000fa
:04033800c8020000f7
:020000040000fa
:04033c00c8020000f3
:020000040000fa
:04034000c8020000ef
:020000040000fa
:04034400c8020000eb
:020000040000fa
:04034800c8020000e7
:020000040000fa
:10040000cf8320000e7f22000e0188000000000034
:10041000000020000000e000020032000001200087
:1004200020028800140007005b0007000000e000c5
:1004300003003a0080542000010020000200370031
:100440000000200001002000810f70000100320038
:1004500014000700000020000000e000020032004d
:1004600000000200000000001c0502000000000067
:100470000040da000000fe004440a9000000200017
:100480000000e0000300320000002000a00188000e
:100490004440a800000006008a1f78008b1f7800e7
:1004a0000000060091018800800478000000eb0045
:1004b0001a003700e284440032a0b4009905ba0063
:1004c000e284440032a0b4009906ba00e2844400f9
:1004d00032a0b4000006eb00476fde00fd07b2005b
:1004e000636ce10003003a00ebff07000000eb0043
:1004f0000a003700606ce10004003a00005deb0088
:100500008b05e900fdff3e00040037006168e10053
:10051000010032000086eb000b00070019c7ba008b
:100520001905ba000e04e00003003a000a00e000da
:10053000e0ff3a0000000600fe07b2009e018800be
:100540008a047800f5ff3700395dba008b05e900b1
:100550000c003200295dba008b05e900080032006a
:100560000c00e00003003a00e284440032a0b40032
:10057000f5ff370019ddba008b05e900faff3a00f4
:100580008904e800e184440032a0b40000000600c1
:0c0590000040da000000fe000000050042
:020000040000fa
:10059c000000fa006119800030e0210001007000b9
:1005ac006019880040038000c000b300400388003d
:1005bc0051038000000026000100700050038800e9
:1005cc0000168000f000b300001688004116800071
:1005dc00f0ff20000080600040168800611680004b
:1005ec0000002f0001007000601688000080fa00e7
:1005fc00000006000800fa00cde2a90010168000e9
:10060c006f006000ef0f5000060032002000200049
:10061c0048010700101680006f0f60000000eb000f
:10062c0010079800cde2a800cdc2a90010168000da
:10063c006f006000ef0f5000060032002000200019
:10064c003c010700101680006f0f600010002000a6
:10065c0010079800cdc2a800cda2a90010168000ea
:10066c00ef0f50000e003200200020003101070077
:10067c00101680006f0060006f0f68001e0078007d
:10068c0000f0a7000000ea00000fea001e0078004e
:10069c004f00de00000f78002000200010079800ab
:1006ac00cda2a800cd82a900101680006f006000ba
:1006bc00ef0f500006003200200020001d01070043
:1006cc00101680006f0f600030002000100798009b
:1006dc00cd82a8001e0078000000e00002003a0065
:1006ec000000eb00170037001e0090004200dd00f8
:1006fc00300798000000eb00200798000d00370031
:10070c009e0078002e0090000088de0061006000e2
:10071c000000e00004003a00be0090002e009000a3
:10072c0000804000070037002e0090000000e80019
:10073c00200798002e009000e30f5000f0ff3400cb
:10074c000000eb000080fa00000006000400fa0034
:10075c00100798001e009000e30f500003003c00af
:10076c001e0090000000e00002003d000000eb00c5
:10077c00100798006116800000002f000100700027
:10078c00601688001e009000800040002080200031
:10079c000080400010007800cc00dd00f0ff20004d
:1007ac0000804000800078006016800000806000af
:1007bc0060168800101680006f0f60001e00780015
:1007cc0080004000a080200000804000100f7800c6
:1007dc001e0090004200dd001e0040000080fa0068
:1007ec00000006000000fa006119800000032000e0
:1007fc0001007000601988004116800030002f0045
:10080c00008060004016880061168000c03f200008
:10081c00010070006016880061168000f03f2f0008
:10082c0000806000601688000080fa00000006005e
:10083c000400fa00004f7800110798006116800040
:10084c00c03f200001007000601688006116800017
:10085c00f03f2f000080600060168800f0c2b300eb
:10086c009e40780080cf50001100340090c3b3003c
:10087c009e40780080cf50000d003c001e00fb0015
:10088c000003b100a1822000614078000080fb00d1
:10089c004200dd008000780030002f008080400096
:1008ac0060168000008060006016880047003700ea
:1008bc0000c6b3009e40780080cf50001100340079
:1008cc0060c6b3009e40780080cf50000d003c0005
:1008dc001e00fb007005b100a18220006140780071
:1008ec000080fb004200dd008000780030002f000b
:1008fc0080804000601680000080600060168800d8
:10090c003200370000c4b3009e40780080cf500006
:10091c001100340060c4b3009e40780080cf5000ba
:10092c000d003c001e00fb007003b100a1822000f2
:10093c00614078000080fb004200dd008000780000
:10094c0030002f0080804000601680000080600026
:10095c00601688001d003700a0c2b3009e407800ce
:10096c0080cf50000b003a00a0832000104078008c
:10097c000080fb004200dd008000780030002f007a
:10098c008080400060168000008060006016880047
:10099c000e00370030c2b3009e40780080cf50006c
:1009ac0014003a00b0832000104078000080fb0057
:1009bc004200dd008000780030002f008080400075
:1009cc006016800000806000601688001e00900099
:1009dc000000e00002003a00cd62a80008003700d9
:1009ec001e009000e10f500004003a00cd42a80018
:1009fc000300370000000000010037000000000079
:100a0c000080fa00000006000000fa00213a800085
:100a1c00f08f2f0000806000203a880071ff0700e3
:100a2c00dbfe07000080fa00000006000000fa0060
:100a3c00f5ff07008000eb0000c3b3007cff07004c
:100a4c0001000700feff37000400fa000000eb0075
:100a5c00000f78000000eb00100798000000eb007e
:100a6c003aff0700100798001e007800004078003d
:100a7c000043b0008000eb006dff07000080fa001f
:040a8c000000060060
:020000040000fa
:100a90000008000002000000000000002a0800001a
:100aa0001200000002000000039f25000d9949007c
:100ab000401f01001811c1006385610071fe000034
:100ac00002080000280000000200000007000b00e0
:100ad000000d00000e00ff0000ff0000ff00ff00ff
:100ae00000ff0000ff00ff0000030000ff00ff0008
:100af00000ff00000200ff00000100000000ff00f6
:080b00000000000000000000ed
:020000040000fa
:100b08000000fa0010002800200888000021ef00eb
:100b1800f0e72300100888008460a90000000000a6
:100b280020048000680060000000e000fcff320044
:100b38000080fa00000006000200fa00000f7800aa
:100b480001003700eeff07001e00780000f0a70044
:100b58000000ea000000ea004f00de0000407800d4
:100b68001e0fe9000004e000f6ff3a000080fa00da
:040b78000000060073
:020000040000fa
:020000040001f9
:0457f8000ff90000a5
:020000040000fa
:020000040001f9
:0457fc007f3f0000eb
:00000001FF
